{
  "contractName": "Ethemerals",
  "abi": [
    {
      "inputs": [
        {
          "internalType": "string",
          "name": "tUri",
          "type": "string"
        },
        {
          "internalType": "address",
          "name": "_tokenAddress",
          "type": "address"
        }
      ],
      "stateMutability": "nonpayable",
      "type": "constructor"
    },
    {
      "anonymous": false,
      "inputs": [
        {
          "indexed": true,
          "internalType": "address",
          "name": "user",
          "type": "address"
        },
        {
          "indexed": false,
          "internalType": "bool",
          "name": "allow",
          "type": "bool"
        }
      ],
      "name": "AllowDelegatesChange",
      "type": "event"
    },
    {
      "anonymous": false,
      "inputs": [
        {
          "indexed": true,
          "internalType": "address",
          "name": "owner",
          "type": "address"
        },
        {
          "indexed": true,
          "internalType": "address",
          "name": "approved",
          "type": "address"
        },
        {
          "indexed": true,
          "internalType": "uint256",
          "name": "tokenId",
          "type": "uint256"
        }
      ],
      "name": "Approval",
      "type": "event"
    },
    {
      "anonymous": false,
      "inputs": [
        {
          "indexed": true,
          "internalType": "address",
          "name": "owner",
          "type": "address"
        },
        {
          "indexed": true,
          "internalType": "address",
          "name": "operator",
          "type": "address"
        },
        {
          "indexed": false,
          "internalType": "bool",
          "name": "approved",
          "type": "bool"
        }
      ],
      "name": "ApprovalForAll",
      "type": "event"
    },
    {
      "anonymous": false,
      "inputs": [
        {
          "indexed": false,
          "internalType": "uint256",
          "name": "tokenId",
          "type": "uint256"
        },
        {
          "indexed": false,
          "internalType": "uint32",
          "name": "rewards",
          "type": "uint32"
        },
        {
          "indexed": false,
          "internalType": "bool",
          "name": "add",
          "type": "bool"
        },
        {
          "indexed": false,
          "internalType": "uint8",
          "name": "action",
          "type": "uint8"
        }
      ],
      "name": "ChangeRewards",
      "type": "event"
    },
    {
      "anonymous": false,
      "inputs": [
        {
          "indexed": false,
          "internalType": "uint256",
          "name": "tokenId",
          "type": "uint256"
        },
        {
          "indexed": false,
          "internalType": "uint16",
          "name": "score",
          "type": "uint16"
        },
        {
          "indexed": false,
          "internalType": "bool",
          "name": "add",
          "type": "bool"
        },
        {
          "indexed": false,
          "internalType": "uint32",
          "name": "rewards",
          "type": "uint32"
        }
      ],
      "name": "ChangeScore",
      "type": "event"
    },
    {
      "anonymous": false,
      "inputs": [
        {
          "indexed": true,
          "internalType": "address",
          "name": "delegate",
          "type": "address"
        },
        {
          "indexed": false,
          "internalType": "bool",
          "name": "add",
          "type": "bool"
        }
      ],
      "name": "DelegateChange",
      "type": "event"
    },
    {
      "anonymous": false,
      "inputs": [
        {
          "indexed": false,
          "internalType": "uint256",
          "name": "id",
          "type": "uint256"
        },
        {
          "indexed": false,
          "internalType": "uint16",
          "name": "elf",
          "type": "uint16"
        },
        {
          "indexed": false,
          "internalType": "uint16",
          "name": "atk",
          "type": "uint16"
        },
        {
          "indexed": false,
          "internalType": "uint16",
          "name": "def",
          "type": "uint16"
        },
        {
          "indexed": false,
          "internalType": "uint16",
          "name": "spd",
          "type": "uint16"
        }
      ],
      "name": "Mint",
      "type": "event"
    },
    {
      "anonymous": false,
      "inputs": [
        {
          "indexed": true,
          "internalType": "address",
          "name": "previousOwner",
          "type": "address"
        },
        {
          "indexed": true,
          "internalType": "address",
          "name": "newOwner",
          "type": "address"
        }
      ],
      "name": "OwnershipTransferred",
      "type": "event"
    },
    {
      "anonymous": false,
      "inputs": [
        {
          "indexed": false,
          "internalType": "uint256",
          "name": "price",
          "type": "uint256"
        }
      ],
      "name": "PriceChange",
      "type": "event"
    },
    {
      "anonymous": false,
      "inputs": [
        {
          "indexed": true,
          "internalType": "address",
          "name": "from",
          "type": "address"
        },
        {
          "indexed": true,
          "internalType": "address",
          "name": "to",
          "type": "address"
        },
        {
          "indexed": true,
          "internalType": "uint256",
          "name": "tokenId",
          "type": "uint256"
        }
      ],
      "name": "Transfer",
      "type": "event"
    },
    {
      "inputs": [
        {
          "internalType": "address",
          "name": "to",
          "type": "address"
        },
        {
          "internalType": "uint256",
          "name": "tokenId",
          "type": "uint256"
        }
      ],
      "name": "approve",
      "outputs": [],
      "stateMutability": "nonpayable",
      "type": "function"
    },
    {
      "inputs": [
        {
          "internalType": "address",
          "name": "owner",
          "type": "address"
        }
      ],
      "name": "balanceOf",
      "outputs": [
        {
          "internalType": "uint256",
          "name": "",
          "type": "uint256"
        }
      ],
      "stateMutability": "view",
      "type": "function",
      "constant": true
    },
    {
      "inputs": [
        {
          "internalType": "uint256",
          "name": "tokenId",
          "type": "uint256"
        }
      ],
      "name": "getApproved",
      "outputs": [
        {
          "internalType": "address",
          "name": "",
          "type": "address"
        }
      ],
      "stateMutability": "view",
      "type": "function",
      "constant": true
    },
    {
      "inputs": [],
      "name": "maxMeralIndex",
      "outputs": [
        {
          "internalType": "uint256",
          "name": "",
          "type": "uint256"
        }
      ],
      "stateMutability": "view",
      "type": "function",
      "constant": true
    },
    {
      "inputs": [],
      "name": "maxMeralSupply",
      "outputs": [
        {
          "internalType": "uint256",
          "name": "",
          "type": "uint256"
        }
      ],
      "stateMutability": "view",
      "type": "function",
      "constant": true
    },
    {
      "inputs": [],
      "name": "meralSupply",
      "outputs": [
        {
          "internalType": "uint256",
          "name": "",
          "type": "uint256"
        }
      ],
      "stateMutability": "view",
      "type": "function",
      "constant": true
    },
    {
      "inputs": [],
      "name": "mintPrice",
      "outputs": [
        {
          "internalType": "uint256",
          "name": "",
          "type": "uint256"
        }
      ],
      "stateMutability": "view",
      "type": "function",
      "constant": true
    },
    {
      "inputs": [],
      "name": "name",
      "outputs": [
        {
          "internalType": "string",
          "name": "",
          "type": "string"
        }
      ],
      "stateMutability": "view",
      "type": "function",
      "constant": true
    },
    {
      "inputs": [],
      "name": "owner",
      "outputs": [
        {
          "internalType": "address",
          "name": "",
          "type": "address"
        }
      ],
      "stateMutability": "view",
      "type": "function",
      "constant": true
    },
    {
      "inputs": [
        {
          "internalType": "uint256",
          "name": "tokenId",
          "type": "uint256"
        }
      ],
      "name": "ownerOf",
      "outputs": [
        {
          "internalType": "address",
          "name": "",
          "type": "address"
        }
      ],
      "stateMutability": "view",
      "type": "function",
      "constant": true
    },
    {
      "inputs": [],
      "name": "renounceOwnership",
      "outputs": [],
      "stateMutability": "nonpayable",
      "type": "function"
    },
    {
      "inputs": [
        {
          "internalType": "address",
          "name": "from",
          "type": "address"
        },
        {
          "internalType": "address",
          "name": "to",
          "type": "address"
        },
        {
          "internalType": "uint256",
          "name": "tokenId",
          "type": "uint256"
        }
      ],
      "name": "safeTransferFrom",
      "outputs": [],
      "stateMutability": "nonpayable",
      "type": "function"
    },
    {
      "inputs": [
        {
          "internalType": "address",
          "name": "from",
          "type": "address"
        },
        {
          "internalType": "address",
          "name": "to",
          "type": "address"
        },
        {
          "internalType": "uint256",
          "name": "tokenId",
          "type": "uint256"
        },
        {
          "internalType": "bytes",
          "name": "_data",
          "type": "bytes"
        }
      ],
      "name": "safeTransferFrom",
      "outputs": [],
      "stateMutability": "nonpayable",
      "type": "function"
    },
    {
      "inputs": [
        {
          "internalType": "address",
          "name": "operator",
          "type": "address"
        },
        {
          "internalType": "bool",
          "name": "approved",
          "type": "bool"
        }
      ],
      "name": "setApprovalForAll",
      "outputs": [],
      "stateMutability": "nonpayable",
      "type": "function"
    },
    {
      "inputs": [],
      "name": "startingELF",
      "outputs": [
        {
          "internalType": "uint16",
          "name": "",
          "type": "uint16"
        }
      ],
      "stateMutability": "view",
      "type": "function",
      "constant": true
    },
    {
      "inputs": [
        {
          "internalType": "bytes4",
          "name": "interfaceId",
          "type": "bytes4"
        }
      ],
      "name": "supportsInterface",
      "outputs": [
        {
          "internalType": "bool",
          "name": "",
          "type": "bool"
        }
      ],
      "stateMutability": "view",
      "type": "function",
      "constant": true
    },
    {
      "inputs": [],
      "name": "symbol",
      "outputs": [
        {
          "internalType": "string",
          "name": "",
          "type": "string"
        }
      ],
      "stateMutability": "view",
      "type": "function",
      "constant": true
    },
    {
      "inputs": [
        {
          "internalType": "uint256",
          "name": "tokenId",
          "type": "uint256"
        }
      ],
      "name": "tokenURI",
      "outputs": [
        {
          "internalType": "string",
          "name": "",
          "type": "string"
        }
      ],
      "stateMutability": "view",
      "type": "function",
      "constant": true
    },
    {
      "inputs": [
        {
          "internalType": "address",
          "name": "from",
          "type": "address"
        },
        {
          "internalType": "address",
          "name": "to",
          "type": "address"
        },
        {
          "internalType": "uint256",
          "name": "tokenId",
          "type": "uint256"
        }
      ],
      "name": "transferFrom",
      "outputs": [],
      "stateMutability": "nonpayable",
      "type": "function"
    },
    {
      "inputs": [
        {
          "internalType": "address",
          "name": "newOwner",
          "type": "address"
        }
      ],
      "name": "transferOwnership",
      "outputs": [],
      "stateMutability": "nonpayable",
      "type": "function"
    },
    {
      "inputs": [
        {
          "internalType": "address",
          "name": "recipient",
          "type": "address"
        }
      ],
      "name": "mintMeral",
      "outputs": [],
      "stateMutability": "payable",
      "type": "function",
      "payable": true
    },
    {
      "inputs": [
        {
          "internalType": "address",
          "name": "recipient",
          "type": "address"
        }
      ],
      "name": "mintMerals",
      "outputs": [],
      "stateMutability": "payable",
      "type": "function",
      "payable": true
    },
    {
      "inputs": [
        {
          "internalType": "uint256",
          "name": "_id",
          "type": "uint256"
        },
        {
          "internalType": "address",
          "name": "recipient",
          "type": "address"
        },
        {
          "internalType": "uint16",
          "name": "_score",
          "type": "uint16"
        },
        {
          "internalType": "uint16",
          "name": "_rewards",
          "type": "uint16"
        },
        {
          "internalType": "uint16",
          "name": "_atk",
          "type": "uint16"
        },
        {
          "internalType": "uint16",
          "name": "_def",
          "type": "uint16"
        },
        {
          "internalType": "uint16",
          "name": "_spd",
          "type": "uint16"
        }
      ],
      "name": "migrateMeral",
      "outputs": [],
      "stateMutability": "nonpayable",
      "type": "function"
    },
    {
      "inputs": [
        {
          "internalType": "bool",
          "name": "allow",
          "type": "bool"
        }
      ],
      "name": "setAllowDelegates",
      "outputs": [],
      "stateMutability": "nonpayable",
      "type": "function"
    },
    {
      "inputs": [
        {
          "internalType": "uint256",
          "name": "_tokenId",
          "type": "uint256"
        },
        {
          "internalType": "uint16",
          "name": "offset",
          "type": "uint16"
        },
        {
          "internalType": "bool",
          "name": "add",
          "type": "bool"
        },
        {
          "internalType": "uint32",
          "name": "amount",
          "type": "uint32"
        }
      ],
      "name": "changeScore",
      "outputs": [],
      "stateMutability": "nonpayable",
      "type": "function"
    },
    {
      "inputs": [
        {
          "internalType": "uint256",
          "name": "_tokenId",
          "type": "uint256"
        },
        {
          "internalType": "uint32",
          "name": "offset",
          "type": "uint32"
        },
        {
          "internalType": "bool",
          "name": "add",
          "type": "bool"
        },
        {
          "internalType": "uint8",
          "name": "action",
          "type": "uint8"
        }
      ],
      "name": "changeRewards",
      "outputs": [],
      "stateMutability": "nonpayable",
      "type": "function"
    },
    {
      "inputs": [],
      "name": "mintReserve",
      "outputs": [],
      "stateMutability": "nonpayable",
      "type": "function"
    },
    {
      "inputs": [
        {
          "internalType": "address",
          "name": "recipient",
          "type": "address"
        },
        {
          "internalType": "uint256",
          "name": "_amount",
          "type": "uint256"
        }
      ],
      "name": "mintMeralsAdmin",
      "outputs": [],
      "stateMutability": "nonpayable",
      "type": "function"
    },
    {
      "inputs": [
        {
          "internalType": "address payable",
          "name": "to",
          "type": "address"
        }
      ],
      "name": "withdraw",
      "outputs": [],
      "stateMutability": "nonpayable",
      "type": "function"
    },
    {
      "inputs": [
        {
          "internalType": "uint256",
          "name": "_price",
          "type": "uint256"
        }
      ],
      "name": "setPrice",
      "outputs": [],
      "stateMutability": "nonpayable",
      "type": "function"
    },
    {
      "inputs": [
        {
          "internalType": "uint256",
          "name": "_id",
          "type": "uint256"
        }
      ],
      "name": "setMaxMeralIndex",
      "outputs": [],
      "stateMutability": "nonpayable",
      "type": "function"
    },
    {
      "inputs": [
        {
          "internalType": "address",
          "name": "_delegate",
          "type": "address"
        },
        {
          "internalType": "bool",
          "name": "add",
          "type": "bool"
        }
      ],
      "name": "addDelegate",
      "outputs": [],
      "stateMutability": "nonpayable",
      "type": "function"
    },
    {
      "inputs": [
        {
          "internalType": "string",
          "name": "newuri",
          "type": "string"
        }
      ],
      "name": "setBaseURI",
      "outputs": [],
      "stateMutability": "nonpayable",
      "type": "function"
    },
    {
      "inputs": [
        {
          "internalType": "uint256",
          "name": "_tokenId",
          "type": "uint256"
        },
        {
          "internalType": "uint16",
          "name": "_cmId",
          "type": "uint16"
        },
        {
          "internalType": "uint16",
          "name": "_element",
          "type": "uint16"
        }
      ],
      "name": "setMeralBase",
      "outputs": [],
      "stateMutability": "nonpayable",
      "type": "function"
    },
    {
      "inputs": [
        {
          "internalType": "uint256",
          "name": "_tokenId",
          "type": "uint256"
        }
      ],
      "name": "getEthemeral",
      "outputs": [
        {
          "components": [
            {
              "internalType": "uint16",
              "name": "score",
              "type": "uint16"
            },
            {
              "internalType": "uint32",
              "name": "rewards",
              "type": "uint32"
            },
            {
              "internalType": "uint16",
              "name": "atk",
              "type": "uint16"
            },
            {
              "internalType": "uint16",
              "name": "def",
              "type": "uint16"
            },
            {
              "internalType": "uint16",
              "name": "spd",
              "type": "uint16"
            }
          ],
          "internalType": "struct Ethemerals.Meral",
          "name": "",
          "type": "tuple"
        }
      ],
      "stateMutability": "view",
      "type": "function",
      "constant": true
    },
    {
      "inputs": [
        {
          "internalType": "uint256",
          "name": "_tokenId",
          "type": "uint256"
        }
      ],
      "name": "getMeralBase",
      "outputs": [
        {
          "internalType": "uint16[]",
          "name": "",
          "type": "uint16[]"
        }
      ],
      "stateMutability": "view",
      "type": "function",
      "constant": true
    },
    {
      "inputs": [],
      "name": "totalSupply",
      "outputs": [
        {
          "internalType": "uint256",
          "name": "",
          "type": "uint256"
        }
      ],
      "stateMutability": "view",
      "type": "function",
      "constant": true
    },
    {
      "inputs": [
        {
          "internalType": "address",
          "name": "_owner",
          "type": "address"
        },
        {
          "internalType": "address",
          "name": "_operator",
          "type": "address"
        }
      ],
      "name": "isApprovedForAll",
      "outputs": [
        {
          "internalType": "bool",
          "name": "",
          "type": "bool"
        }
      ],
      "stateMutability": "view",
      "type": "function",
      "constant": true
    }
  ],
  "bytecode": "0x60806040526127116009556001600a55670de0b6b3a7640000600c55600d805461ffff19166107d01790553480156200003757600080fd5b50604051620039e6380380620039e68339810160408190526200005a91620006c8565b604080518082018252600a815269457468656d6572616c7360b01b6020808301918252835180850190945260068452654d4552414c5360d01b908401528151919291620000aa91600091620005d9565b508051620000c0906001906020840190620005d9565b5050506000620000d56200026960201b60201c565b600680546001600160a01b0319166001600160a01b03831690811790915560405191925090600090600080516020620039c6833981519152908290a350815162000127906007906020850190620005d9565b50600d805462010000600160b01b031916620100006001600160a01b03841602179055620001573360006200026d565b6040805160a08101825261012c8152600d5461ffff9081166020830190815260fa8385018181526060850182815260808601928352600e8054600181018255600091825296517fbb7b4a454dc3493923482f07822329ed19e8244eff582cc204f8554c3620c3fd9097018054955193519251945187166a01000000000000000000000261ffff60501b19958816680100000000000000000261ffff60401b199489166601000000000000029490941663ffffffff60301b1963ffffffff96909616620100000265ffffffffffff1990981699909816989098179590951792909216949094179390931716929092179091559051339190600080516020620039c6833981519152908290a3505062000892565b3390565b6200028f8282604051806020016040528060008152506200029360201b60201c565b5050565b6200029f83836200030f565b620002ae60008484846200044a565b6200030a5760405162461bcd60e51b81526020600482015260326024820152600080516020620039a683398151915260448201527131b2b4bb32b91034b6b83632b6b2b73a32b960711b60648201526084015b60405180910390fd5b505050565b6001600160a01b038216620003675760405162461bcd60e51b815260206004820181905260248201527f4552433732313a206d696e7420746f20746865207a65726f2061646472657373604482015260640162000301565b6200037281620005b3565b15620003c15760405162461bcd60e51b815260206004820152601c60248201527f4552433732313a20746f6b656e20616c7265616479206d696e74656400000000604482015260640162000301565b6001600160a01b0382166000908152600360205260408120805460019290620003ec908490620007e7565b909155505060008181526002602052604080822080546001600160a01b0319166001600160a01b03861690811790915590518392907fddf252ad1be2c89b69c2b068fc378daa952ba7f163c4a11628f55a4df523b3ef908290a45050565b60006200046b846001600160a01b0316620005d360201b62001dc71760201c565b15620005a757604051630a85bd0160e11b81526001600160a01b0385169063150b7a0290620004a590339089908890889060040162000791565b602060405180830381600087803b158015620004c057600080fd5b505af1925050508015620004f3575060408051601f3d908101601f19168201909252620004f09181019062000697565b60015b6200058c573d80801562000524576040519150601f19603f3d011682016040523d82523d6000602084013e62000529565b606091505b508051620005845760405162461bcd60e51b81526020600482015260326024820152600080516020620039a683398151915260448201527131b2b4bb32b91034b6b83632b6b2b73a32b960711b606482015260840162000301565b805181602001fd5b6001600160e01b031916630a85bd0160e11b149050620005ab565b5060015b949350505050565b6000818152600260205260409020546001600160a01b031615155b919050565b3b151590565b828054620005e7906200083f565b90600052602060002090601f0160209004810192826200060b576000855562000656565b82601f106200062657805160ff191683800117855562000656565b8280016001018555821562000656579182015b828111156200065657825182559160200191906001019062000639565b506200066492915062000668565b5090565b5b8082111562000664576000815560010162000669565b80516001600160a01b0381168114620005ce57600080fd5b600060208284031215620006a9578081fd5b81516001600160e01b031981168114620006c1578182fd5b9392505050565b60008060408385031215620006db578081fd5b82516001600160401b0380821115620006f2578283fd5b818501915085601f83011262000706578283fd5b8151818111156200071b576200071b6200087c565b604051601f8201601f19908116603f011681019083821181831017156200074657620007466200087c565b816040528281528860208487010111156200075f578586fd5b620007728360208301602088016200080c565b809650505050505062000788602084016200067f565b90509250929050565b600060018060a01b038087168352808616602084015250836040830152608060608301528251806080840152620007d08160a08501602087016200080c565b601f01601f19169190910160a00195945050505050565b600082198211156200080757634e487b7160e01b81526011600452602481fd5b500190565b60005b83811015620008295781810151838201526020016200080f565b8381111562000839576000848401525b50505050565b600181811c908216806200085457607f821691505b602082108114156200087657634e487b7160e01b600052602260045260246000fd5b50919050565b634e487b7160e01b600052604160045260246000fd5b61310480620008a26000396000f3fe6080604052600436106102855760003560e01c806370a0823111610153578063a22cb465116100cb578063e7f698091161007f578063ed4d8e1511610064578063ed4d8e151461071b578063f2fde38b14610731578063f774a9391461075157610285565b8063e7f69809146106db578063e985e9c5146106fb57610285565b8063c0879a1f116100b0578063c0879a1f14610685578063c5410942146106a5578063c87b56dd146106bb57610285565b8063a22cb46514610645578063b88d4fde1461066557610285565b80638da5cb5b1161012257806395d89b411161010757806395d89b41146105a257806396f0c42b146105b757806399ef9d9f146105d757610285565b80638da5cb5b1461056457806391b7f5ed1461058257610285565b806370a08231146104ec578063715018a61461050c5780638189762714610521578063890ac3661461054f57610285565b806325d620e21161020157806351cff8d9116101b55780636352211e1161019a5780636352211e146104965780636817c76c146104b65780636b7d47ab146104cc57610285565b806351cff8d91461045657806355f804b31461047657610285565b806342842e0e116101e657806342842e0e146104005780634f771d171461042057806350b16f171461044057610285565b806325d620e2146103cd5780632952e04b146103e057610285565b8063095ea7b311610258578063150277b81161023d578063150277b81461037b57806318160ddd1461038e57806323b872dd146103ad57610285565b8063095ea7b31461033b5780630cb7ef5b1461035b57610285565b806301ffc9a71461028a57806306fdde03146102bf578063081812fc146102e157806308cba95214610319575b600080fd5b34801561029657600080fd5b506102aa6102a5366004612beb565b61077e565b60405190151581526020015b60405180910390f35b3480156102cb57600080fd5b506102d461081d565b6040516102b69190612eba565b3480156102ed57600080fd5b506103016102fc366004612c69565b6108af565b6040516001600160a01b0390911681526020016102b6565b34801561032557600080fd5b50610339610334366004612bd1565b610949565b005b34801561034757600080fd5b50610339610356366004612ba6565b61099e565b34801561036757600080fd5b50610339610376366004612c69565b610ad0565b610339610389366004612a61565b610b6e565b34801561039a57600080fd5b50600a545b6040519081526020016102b6565b3480156103b957600080fd5b506103396103c8366004612ab5565b610c3d565b6103396103db366004612a61565b610cc4565b3480156103ec57600080fd5b506103396103fb366004612d4d565b610d54565b34801561040c57600080fd5b5061033961041b366004612ab5565b610dd7565b34801561042c57600080fd5b5061033961043b366004612d01565b610df2565b34801561044c57600080fd5b5061039f600b5481565b34801561046257600080fd5b50610339610471366004612a61565b611016565b34801561048257600080fd5b50610339610491366004612c23565b611097565b3480156104a257600080fd5b506103016104b1366004612c69565b6110f2565b3480156104c257600080fd5b5061039f600c5481565b3480156104d857600080fd5b506103396104e7366004612d88565b61117d565b3480156104f857600080fd5b5061039f610507366004612a61565b61134b565b34801561051857600080fd5b506103396113e5565b34801561052d57600080fd5b50600d5461053c9061ffff1681565b60405161ffff90911681526020016102b6565b34801561055b57600080fd5b50610339611477565b34801561057057600080fd5b506006546001600160a01b0316610301565b34801561058e57600080fd5b5061033961059d366004612c69565b6114d2565b3480156105ae57600080fd5b506102d4611555565b3480156105c357600080fd5b506103396105d2366004612ba6565b611564565b3480156105e357600080fd5b506105f76105f2366004612c69565b611612565b6040516102b69190815161ffff908116825260208084015163ffffffff1690830152604080840151821690830152606080840151821690830152608092830151169181019190915260a00190565b34801561065157600080fd5b50610339610660366004612b72565b6116d5565b34801561067157600080fd5b50610339610680366004612af5565b6117a7565b34801561069157600080fd5b506103396106a0366004612b72565b61182f565b3480156106b157600080fd5b5061039f60095481565b3480156106c757600080fd5b506102d46106d6366004612c69565b6118d6565b3480156106e757600080fd5b506103396106f6366004612c81565b6119bf565b34801561070757600080fd5b506102aa610716366004612a7d565b611b98565b34801561072757600080fd5b5061039f600a5481565b34801561073d57600080fd5b5061033961074c366004612a61565b611c1d565b34801561075d57600080fd5b5061077161076c366004612c69565b611d3d565b6040516102b69190612e72565b60006001600160e01b031982167f80ac58cd0000000000000000000000000000000000000000000000000000000014806107e157506001600160e01b031982167f5b5e139f00000000000000000000000000000000000000000000000000000000145b8061081557507f01ffc9a7000000000000000000000000000000000000000000000000000000006001600160e01b03198316145b90505b919050565b60606000805461082c90612fd7565b80601f016020809104026020016040519081016040528092919081815260200182805461085890612fd7565b80156108a55780601f1061087a576101008083540402835291602001916108a5565b820191906000526020600020905b81548152906001019060200180831161088857829003601f168201915b5050505050905090565b6000818152600260205260408120546001600160a01b031661092d5760405162461bcd60e51b815260206004820152602c60248201527f4552433732313a20617070726f76656420717565727920666f72206e6f6e657860448201526b34b9ba32b73a103a37b5b2b760a11b60648201526084015b60405180910390fd5b506000908152600460205260409020546001600160a01b031690565b33600081815260116020908152604091829020805460ff191685151590811790915591519182527f4e60f5eba9bd79c8830053f229ddcff96eefe82f4cc33eac6d53b53b4d63b7ea910160405180910390a250565b60006109a9826110f2565b9050806001600160a01b0316836001600160a01b03161415610a335760405162461bcd60e51b815260206004820152602160248201527f4552433732313a20617070726f76616c20746f2063757272656e74206f776e6560448201527f72000000000000000000000000000000000000000000000000000000000000006064820152608401610924565b336001600160a01b0382161480610a4f5750610a4f8133610716565b610ac15760405162461bcd60e51b815260206004820152603860248201527f4552433732313a20617070726f76652063616c6c6572206973206e6f74206f7760448201527f6e6572206e6f7220617070726f76656420666f7220616c6c00000000000000006064820152608401610924565b610acb8383611dcd565b505050565b6006546001600160a01b03163314610b185760405162461bcd60e51b815260206004820181905260248201526000805160206130af8339815191526044820152606401610924565b6009548110610b695760405162461bcd60e51b815260206004820152600a60248201527f6d617820737570706c79000000000000000000000000000000000000000000006044820152606401610924565b600b55565b600a546002600b54610b809190612f77565b1015610bc05760405162461bcd60e51b815260206004820152600f60248201526e73616c65206e6f742061637469766560881b6044820152606401610924565b600a600c546003610bd19190612f35565b610bdb9190612f21565b600c54610be9906003612f35565b610bf39190612f77565b341015610c2f5760405162461bcd60e51b815260206004820152600a6024820152690dcdee840cadcdeeaced60b31b6044820152606401610924565b610c3a600382611e3b565b50565b610c47338261206b565b610cb95760405162461bcd60e51b815260206004820152603160248201527f4552433732313a207472616e736665722063616c6c6572206973206e6f74206f60448201527f776e6572206e6f7220617070726f7665640000000000000000000000000000006064820152608401610924565b610acb838383612142565b600a54600b541015610d0a5760405162461bcd60e51b815260206004820152600f60248201526e73616c65206e6f742061637469766560881b6044820152606401610924565b600c54341015610d495760405162461bcd60e51b815260206004820152600a6024820152690dcdee840cadcdeeaced60b31b6044820152606401610924565b610c3a600182611e3b565b6006546001600160a01b03163314610d9c5760405162461bcd60e51b815260206004820181905260248201526000805160206130af8339815191526044820152606401610924565b60408051808201825261ffff808516825283166020808301919091526000868152600f90915291909120610dd1916002612883565b50505050565b610acb838383604051806020016040528060008152506117a7565b3360009081526010602052604090205460ff161515600114610e565760405162461bcd60e51b815260206004820152600e60248201527f64656c656761746573206f6e6c790000000000000000000000000000000000006044820152606401610924565b6000848152600260205260409020546001600160a01b0316610ea65760405162461bcd60e51b81526020600482015260096024820152681b9bdd08195e1a5cdd60ba1b6044820152606401610924565b6000600e8581548110610ec957634e487b7160e01b600052603260045260246000fd5b60009182526020822001805490925061ffff16908415610f10576000610eef8784612ecd565b90506103e88161ffff1611610f045780610f08565b6103e85b915050610f34565b8561ffff168261ffff1611610f2757506000610f34565b610f318683612f54565b90505b825461ffff191661ffff8216178355600061271063ffffffff861611610f5a5784610f5e565b6127105b845490915081908590600290610f8190849062010000900463ffffffff16612f02565b92506101000a81548163ffffffff021916908363ffffffff16021790555060086000815480929190610fb290613012565b90915550506040805189815261ffff841660208201528715159181019190915263ffffffff821660608201527f84313c9007873e1420321c2f9dca9f662a22294eb34bd792bd8b2cb57e8dea88906080015b60405180910390a15050505050505050565b6006546001600160a01b0316331461105e5760405162461bcd60e51b815260206004820181905260248201526000805160206130af8339815191526044820152606401610924565b6040516001600160a01b038216904780156108fc02916000818181858888f19350505050158015611093573d6000803e3d6000fd5b5050565b6006546001600160a01b031633146110df5760405162461bcd60e51b815260206004820181905260248201526000805160206130af8339815191526044820152606401610924565b805161109390600790602084019061292c565b6000818152600260205260408120546001600160a01b0316806108155760405162461bcd60e51b815260206004820152602960248201527f4552433732313a206f776e657220717565727920666f72206e6f6e657869737460448201527f656e7420746f6b656e00000000000000000000000000000000000000000000006064820152608401610924565b3360009081526010602052604090205460ff1615156001146111e15760405162461bcd60e51b815260206004820152600e60248201527f64656c656761746573206f6e6c790000000000000000000000000000000000006044820152606401610924565b6000848152600260205260409020546001600160a01b03166112315760405162461bcd60e51b81526020600482015260096024820152681b9bdd08195e1a5cdd60ba1b6044820152606401610924565b6000600e858154811061125457634e487b7160e01b600052603260045260246000fd5b60009182526020822001805490925062010000900463ffffffff16908085156112a3576127108763ffffffff161161128c5786611290565b6127105b905061129c8184612f02565b91506112cc565b8663ffffffff168363ffffffff16116112bf57600091506112cc565b6112c98784612f8e565b91505b835465ffffffff000019166201000063ffffffff841602178455600880549060006112f683613012565b90915550506040805189815263ffffffff841660208201528715159181019190915260ff861660608201527fa54d72d1d9df669e7ee0415fa27d1be691d1ff333c810642331aa3f4b04624e190608001611004565b60006001600160a01b0382166113c95760405162461bcd60e51b815260206004820152602a60248201527f4552433732313a2062616c616e636520717565727920666f7220746865207a6560448201527f726f2061646472657373000000000000000000000000000000000000000000006064820152608401610924565b506001600160a01b031660009081526003602052604090205490565b6006546001600160a01b0316331461142d5760405162461bcd60e51b815260206004820181905260248201526000805160206130af8339815191526044820152606401610924565b6006546040516000916001600160a01b0316907f8be0079c531659141344cd1fd0a4f28419497f9722a3daafe3b4186f6b6457e0908390a3600680546001600160a01b0319169055565b6006546001600160a01b031633146114bf5760405162461bcd60e51b815260206004820181905260248201526000805160206130af8339815191526044820152606401610924565b600a600b8190556114d09033611e3b565b565b6006546001600160a01b0316331461151a5760405162461bcd60e51b815260206004820181905260248201526000805160206130af8339815191526044820152606401610924565b600c8190556040518181527ff347ee99503bf19c028bd6b18f3c676e82a9bb5b2bb5225aebe0fd62fd6a0d199060200160405180910390a150565b60606001805461082c90612fd7565b6006546001600160a01b031633146115ac5760405162461bcd60e51b815260206004820181905260248201526000805160206130af8339815191526044820152606401610924565b600a5481600b546115bd9190612f77565b6115c8906001612eea565b10156116085760405162461bcd60e51b815260206004820152600f60248201526e73616c65206e6f742061637469766560881b6044820152606401610924565b6110938183611e3b565b6040805160a081018252600080825260208201819052918101829052606081018290526080810191909152600e828154811061165e57634e487b7160e01b600052603260045260246000fd5b60009182526020918290206040805160a081018252929091015461ffff808216845262010000820463ffffffff169484019490945266010000000000008104841691830191909152680100000000000000008104831660608301526a01000000000000000000009004909116608082015292915050565b6001600160a01b03821633141561172e5760405162461bcd60e51b815260206004820152601960248201527f4552433732313a20617070726f766520746f2063616c6c6572000000000000006044820152606401610924565b3360008181526005602090815260408083206001600160a01b0387168085529252909120805460ff1916841515179055906001600160a01b03167f17307eab39ab6107e8899845ad3d59bd9653f200f220920489ca2b5937696c318360405161179b911515815260200190565b60405180910390a35050565b6117b1338361206b565b6118235760405162461bcd60e51b815260206004820152603160248201527f4552433732313a207472616e736665722063616c6c6572206973206e6f74206f60448201527f776e6572206e6f7220617070726f7665640000000000000000000000000000006064820152608401610924565b610dd18484848461230f565b6006546001600160a01b031633146118775760405162461bcd60e51b815260206004820181905260248201526000805160206130af8339815191526044820152606401610924565b6001600160a01b038216600081815260106020908152604091829020805460ff191685151590811790915591519182527f7041f5f8d35238e3c5b0feecf1eb8ed967e3428534cc94d5ca6ead28a0e2f6fc910160405180910390a25050565b6000818152600260205260409020546060906001600160a01b03166119635760405162461bcd60e51b815260206004820152602f60248201527f4552433732314d657461646174613a2055524920717565727920666f72206e6f60448201527f6e6578697374656e7420746f6b656e00000000000000000000000000000000006064820152608401610924565b600061196d61238d565b9050600081511161198d57604051806020016040528060008152506119b8565b806119978461239c565b6040516020016119a8929190612e07565b6040516020818303038152906040525b9392505050565b6006546001600160a01b03163314611a075760405162461bcd60e51b815260206004820181905260248201526000805160206130af8339815191526044820152606401610924565b611a1186886124eb565b600a8054906000611a2183613012565b90915550506040805160a08101825261ffff8088168252868116602083019081528682168385019081528683166060850190815286841660808601908152600e805460018101825560009190915295517fbb7b4a454dc3493923482f07822329ed19e8244eff582cc204f8554c3620c3fd9096018054945193519251915186166a0100000000000000000000026bffff0000000000000000000019928716680100000000000000000269ffff0000000000000000199488166601000000000000029490941669ffffffff0000000000001963ffffffff96909616620100000265ffffffffffff1990971698909716979097179490941792909216939093179290921791909116919091179055517f0ba8a8ccaf764108b7db6c691c1e5bfa526dda8023f4c849525e760c447250b390611b87908990879087908790879094855261ffff938416602086015291831660408501528216606084015216608082015260a00190565b60405180910390a150505050505050565b6001600160a01b03821660009081526011602052604081205460ff168015611bdd57506001600160a01b03821660009081526010602052604090205460ff1615156001145b15611bea57506001611c17565b6001600160a01b0380841660009081526005602090815260408083209386168352929052205460ff165b90505b92915050565b6006546001600160a01b03163314611c655760405162461bcd60e51b815260206004820181905260248201526000805160206130af8339815191526044820152606401610924565b6001600160a01b038116611ce15760405162461bcd60e51b815260206004820152602660248201527f4f776e61626c653a206e6577206f776e657220697320746865207a65726f206160448201527f64647265737300000000000000000000000000000000000000000000000000006064820152608401610924565b6006546040516001600160a01b038084169216907f8be0079c531659141344cd1fd0a4f28419497f9722a3daafe3b4186f6b6457e090600090a3600680546001600160a01b0319166001600160a01b0392909216919091179055565b6000818152600f6020908152604091829020805483518184028101840190945280845260609392830182828015611dbb57602002820191906000526020600020906000905b82829054906101000a900461ffff1661ffff1681526020019060020190602082600101049283019260010382029150808411611d825790505b50505050509050919050565b3b151590565b600081815260046020526040902080546001600160a01b0319166001600160a01b0384169081179091558190611e02826110f2565b6001600160a01b03167f8c5be1e5ebec7d5bd14f71427d1e84f3dd0314c0f7b2291e5b200ac8c7c3b92560405160405180910390a45050565b60005b82811015610acb57611e5282600a546124eb565b6000611e6e6102626008546013611e699190612eea565b612505565b611e79906064612eea565b600880549192506000611e8b83613012565b9091555060009050611eb5611ea283610320612f54565b61ffff166008546018611e699190612eea565b611ec0906064612eea565b9050600081611ed1846103e8612f54565b611edb9190612f54565b6040805160a0808201835261012c8252600d805461ffff90811660208086019182528a83168688018181528b85166060808a018281528c88166080808d01828152600e80546001810182556000919091529d517fbb7b4a454dc3493923482f07822329ed19e8244eff582cc204f8554c3620c3fd909e0180549a519751945191519e8c1665ffffffffffff19909b169a909a176201000063ffffffff909816979097029690961769ffffffff00000000000019166601000000000000938b169390930269ffff000000000000000019169290921768010000000000000000958a1695909502949094176bffff0000000000000000000019166a01000000000000000000009b89169b909b029a909a17909555600a5496548a519788529095169286019290925296840196909652820152918201929092529192507f0ba8a8ccaf764108b7db6c691c1e5bfa526dda8023f4c849525e760c447250b3910160405180910390a1600a805490600061205083613012565b9190505550505050808061206390613012565b915050611e3e565b6000818152600260205260408120546001600160a01b03166120e45760405162461bcd60e51b815260206004820152602c60248201527f4552433732313a206f70657261746f7220717565727920666f72206e6f6e657860448201526b34b9ba32b73a103a37b5b2b760a11b6064820152608401610924565b60006120ef836110f2565b9050806001600160a01b0316846001600160a01b0316148061212a5750836001600160a01b031661211f846108af565b6001600160a01b0316145b8061213a575061213a8185611b98565b949350505050565b826001600160a01b0316612155826110f2565b6001600160a01b0316146121d15760405162461bcd60e51b815260206004820152602960248201527f4552433732313a207472616e73666572206f6620746f6b656e2074686174206960448201527f73206e6f74206f776e00000000000000000000000000000000000000000000006064820152608401610924565b6001600160a01b03821661224c5760405162461bcd60e51b8152602060048201526024808201527f4552433732313a207472616e7366657220746f20746865207a65726f2061646460448201527f72657373000000000000000000000000000000000000000000000000000000006064820152608401610924565b612257600082611dcd565b6001600160a01b0383166000908152600360205260408120805460019290612280908490612f77565b90915550506001600160a01b03821660009081526003602052604081208054600192906122ae908490612eea565b909155505060008181526002602052604080822080546001600160a01b0319166001600160a01b0386811691821790925591518493918716917fddf252ad1be2c89b69c2b068fc378daa952ba7f163c4a11628f55a4df523b3ef91a4505050565b61231a848484612142565b6123268484848461256b565b610dd15760405162461bcd60e51b815260206004820152603260248201527f4552433732313a207472616e7366657220746f206e6f6e20455243373231526560448201527131b2b4bb32b91034b6b83632b6b2b73a32b960711b6064820152608401610924565b60606007805461082c90612fd7565b6060816123dd575060408051808201909152600181527f30000000000000000000000000000000000000000000000000000000000000006020820152610818565b8160005b811561240757806123f181613012565b91506124009050600a83612f21565b91506123e1565b60008167ffffffffffffffff81111561243057634e487b7160e01b600052604160045260246000fd5b6040519080825280601f01601f19166020018201604052801561245a576020820181803683370190505b5090505b841561213a5761246f600183612f77565b915061247c600a8661302d565b612487906030612eea565b60f81b8183815181106124aa57634e487b7160e01b600052603260045260246000fd5b60200101907effffffffffffffffffffffffffffffffffffffffffffffffffffffffffffff1916908160001a9053506124e4600a86612f21565b945061245e565b6110938282604051806020016040528060008152506126c3565b60008282434433604051602001612548949392919093845260208401929092526040830152606090811b6bffffffffffffffffffffffff19169082015260740190565b6040516020818303038152906040528051906020012060001c611c14919061302d565b60006001600160a01b0384163b156126b857604051630a85bd0160e11b81526001600160a01b0385169063150b7a02906125af903390899088908890600401612e36565b602060405180830381600087803b1580156125c957600080fd5b505af19250505080156125f9575060408051601f3d908101601f191682019092526125f691810190612c07565b60015b61269e573d808015612627576040519150601f19603f3d011682016040523d82523d6000602084013e61262c565b606091505b5080516126965760405162461bcd60e51b815260206004820152603260248201527f4552433732313a207472616e7366657220746f206e6f6e20455243373231526560448201527131b2b4bb32b91034b6b83632b6b2b73a32b960711b6064820152608401610924565b805181602001fd5b6001600160e01b031916630a85bd0160e11b14905061213a565b506001949350505050565b6126cd8383612741565b6126da600084848461256b565b610acb5760405162461bcd60e51b815260206004820152603260248201527f4552433732313a207472616e7366657220746f206e6f6e20455243373231526560448201527131b2b4bb32b91034b6b83632b6b2b73a32b960711b6064820152608401610924565b6001600160a01b0382166127975760405162461bcd60e51b815260206004820181905260248201527f4552433732313a206d696e7420746f20746865207a65726f20616464726573736044820152606401610924565b6000818152600260205260409020546001600160a01b0316156127fc5760405162461bcd60e51b815260206004820152601c60248201527f4552433732313a20746f6b656e20616c7265616479206d696e746564000000006044820152606401610924565b6001600160a01b0382166000908152600360205260408120805460019290612825908490612eea565b909155505060008181526002602052604080822080546001600160a01b0319166001600160a01b03861690811790915590518392907fddf252ad1be2c89b69c2b068fc378daa952ba7f163c4a11628f55a4df523b3ef908290a45050565b82805482825590600052602060002090600f0160109004810192821561291c5791602002820160005b838211156128ec57835183826101000a81548161ffff021916908361ffff16021790555092602001926002016020816001010492830192600103026128ac565b801561291a5782816101000a81549061ffff02191690556002016020816001010492830192600103026128ec565b505b506129289291506129a0565b5090565b82805461293890612fd7565b90600052602060002090601f01602090048101928261295a576000855561291c565b82601f1061297357805160ff191683800117855561291c565b8280016001018555821561291c579182015b8281111561291c578251825591602001919060010190612985565b5b8082111561292857600081556001016129a1565b600067ffffffffffffffff808411156129d0576129d061306d565b604051601f8501601f19908116603f011681019082821181831017156129f8576129f861306d565b81604052809350858152868686011115612a1157600080fd5b858560208301376000602087830101525050509392505050565b8035801515811461081857600080fd5b803561ffff8116811461081857600080fd5b803563ffffffff8116811461081857600080fd5b600060208284031215612a72578081fd5b81356119b881613083565b60008060408385031215612a8f578081fd5b8235612a9a81613083565b91506020830135612aaa81613083565b809150509250929050565b600080600060608486031215612ac9578081fd5b8335612ad481613083565b92506020840135612ae481613083565b929592945050506040919091013590565b60008060008060808587031215612b0a578081fd5b8435612b1581613083565b93506020850135612b2581613083565b925060408501359150606085013567ffffffffffffffff811115612b47578182fd5b8501601f81018713612b57578182fd5b612b66878235602084016129b5565b91505092959194509250565b60008060408385031215612b84578182fd5b8235612b8f81613083565b9150612b9d60208401612a2b565b90509250929050565b60008060408385031215612bb8578182fd5b8235612bc381613083565b946020939093013593505050565b600060208284031215612be2578081fd5b611c1482612a2b565b600060208284031215612bfc578081fd5b81356119b881613098565b600060208284031215612c18578081fd5b81516119b881613098565b600060208284031215612c34578081fd5b813567ffffffffffffffff811115612c4a578182fd5b8201601f81018413612c5a578182fd5b61213a848235602084016129b5565b600060208284031215612c7a578081fd5b5035919050565b600080600080600080600060e0888a031215612c9b578485fd5b873596506020880135612cad81613083565b9550612cbb60408901612a3b565b9450612cc960608901612a3b565b9350612cd760808901612a3b565b9250612ce560a08901612a3b565b9150612cf360c08901612a3b565b905092959891949750929550565b60008060008060808587031215612d16578182fd5b84359350612d2660208601612a3b565b9250612d3460408601612a2b565b9150612d4260608601612a4d565b905092959194509250565b600080600060608486031215612d61578081fd5b83359250612d7160208501612a3b565b9150612d7f60408501612a3b565b90509250925092565b60008060008060808587031215612d9d578182fd5b84359350612dad60208601612a4d565b9250612dbb60408601612a2b565b9150606085013560ff81168114612dd0578182fd5b939692955090935050565b60008151808452612df3816020860160208601612fab565b601f01601f19169290920160200192915050565b60008351612e19818460208801612fab565b835190830190612e2d818360208801612fab565b01949350505050565b60006001600160a01b03808716835280861660208401525083604083015260806060830152612e686080830184612ddb565b9695505050505050565b6020808252825182820181905260009190848201906040850190845b81811015612eae57835161ffff1683529284019291840191600101612e8e565b50909695505050505050565b600060208252611c146020830184612ddb565b600061ffff808316818516808303821115612e2d57612e2d613041565b60008219821115612efd57612efd613041565b500190565b600063ffffffff808316818516808303821115612e2d57612e2d613041565b600082612f3057612f30613057565b500490565b6000816000190483118215151615612f4f57612f4f613041565b500290565b600061ffff83811690831681811015612f6f57612f6f613041565b039392505050565b600082821015612f8957612f89613041565b500390565b600063ffffffff83811690831681811015612f6f57612f6f613041565b60005b83811015612fc6578181015183820152602001612fae565b83811115610dd15750506000910152565b600181811c90821680612feb57607f821691505b6020821081141561300c57634e487b7160e01b600052602260045260246000fd5b50919050565b600060001982141561302657613026613041565b5060010190565b60008261303c5761303c613057565b500690565b634e487b7160e01b600052601160045260246000fd5b634e487b7160e01b600052601260045260246000fd5b634e487b7160e01b600052604160045260246000fd5b6001600160a01b0381168114610c3a57600080fd5b6001600160e01b031981168114610c3a57600080fdfe4f776e61626c653a2063616c6c6572206973206e6f7420746865206f776e6572a26469706673582212202e0a6b08eb68b3f28896bdf992f84aca95485b34426e2badd5406bcf041f85ab64736f6c634300080300334552433732313a207472616e7366657220746f206e6f6e2045524337323152658be0079c531659141344cd1fd0a4f28419497f9722a3daafe3b4186f6b6457e0",
  "immutableReferences": {},
  "source": "// SPDX-License-Identifier: MIT\npragma solidity ^0.8.3;\n\n// import \"https://github.com/OpenZeppelin/openzeppelin-contracts/blob/master/contracts/token/ERC721/ERC721.sol\";\n// import \"https://github.com/OpenZeppelin/openzeppelin-contracts/blob/master/contracts/token/ERC20/IERC20.sol\";\n// import \"https://github.com/OpenZeppelin/openzeppelin-contracts/blob/master/contracts/access/Ownable.sol\";\n\nimport \"../openzep/token/ERC721/ERC721.sol\";\nimport \"../openzep/token/ERC20/IERC20.sol\";\nimport \"../openzep/access/Ownable.sol\";\n\ncontract Ethemerals is ERC721, Ownable {\n    event ChangeScore(uint256 tokenId, uint16 score, bool add, uint32 rewards);\n    event ChangeRewards(\n        uint256 tokenId,\n        uint32 rewards,\n        bool add,\n        uint8 action\n    );\n    event PriceChange(uint256 price);\n    event Mint(uint256 id, uint16 elf, uint16 atk, uint16 def, uint16 spd);\n    event DelegateChange(address indexed delegate, bool add);\n    event AllowDelegatesChange(address indexed user, bool allow);\n\n    // NFT TOKENOMICS\n    // 1-1000 intial sale of 'Ethemerals'\n    // max 10,000 Ethemerals\n\n    // Basic minimal struct for an Ethemeral, addon contracts for inventory and stats\n    struct Meral {\n        uint16 score;\n        uint32 rewards;\n        uint16 atk;\n        uint16 def;\n        uint16 spd;\n    }\n\n    string private _uri;\n\n    // Nonce used in random function\n    uint256 private nonce;\n\n    // MAX SUPPLY\n    uint256 public maxMeralSupply = 10001; // #10000 last index, probably in 10 years :)\n\n    // CURRENT SUPPLY\n    uint256 public meralSupply = 1; // #0 skipped\n\n    // AVAILABLE\n    uint256 public maxMeralIndex;\n\n    // Mint price in ETH\n    uint256 public mintPrice = 1 * 10**18; // change once deployed\n\n    // ELF at birth\n    uint16 public startingELF = 2000; // need to * 10 ** 18\n\n    // ELF ERC20 address\n    address private tokenAddress;\n\n    // Arrays of Ethemerals\n    Meral[] private allMerals;\n\n    // mapping of EthemeralsBases (only originals)\n    mapping(uint256 => uint16[]) private allMeralBases;\n\n    // Delegates include game masters and auction houses\n    mapping(address => bool) private delegates;\n\n    // Default to off. User needs to allow\n    mapping(address => bool) private allowDelegates;\n\n    constructor(string memory tUri, address _tokenAddress)\n        ERC721(\"Ethemerals\", \"MERALS\")\n    {\n        _uri = tUri;\n        tokenAddress = _tokenAddress;\n\n        // mint the #0 to fix the maths\n        _safeMint(msg.sender, 0);\n        allMerals.push(Meral(300, startingELF, 250, 250, 250));\n        emit OwnershipTransferred(address(0), msg.sender);\n    }\n\n    /**\n     * @dev Mints an Ethemeral\n     * Calls internal _mintMerals\n     */\n    function mintMeral(address recipient) external payable {\n        require(maxMeralIndex >= meralSupply, \"sale not active\");\n        require(msg.value >= mintPrice, \"not enough\");\n        _mintMerals(1, recipient);\n    }\n\n    /**\n     * @dev Mints Ethemerals\n     * Calls internal _mintMerals\n     */\n    function mintMerals(address recipient) external payable {\n        require(maxMeralIndex - 2 >= meralSupply, \"sale not active\");\n        require(\n            msg.value >= (mintPrice * 3 - ((mintPrice * 3) / 10)),\n            \"not enough\"\n        ); // 10% discount\n        _mintMerals(3, recipient);\n    }\n\n    /**\n     * @dev migrates (mints) an Ethemeral\n     * ment to be used during migration from L1 to L2\n     * sets the supplied id, score, rewards,  atk, def, spd\n     */\n    function migrateMeral(\n        uint256 _id,\n        address recipient,\n        uint16 _score,\n        uint16 _rewards,\n        uint16 _atk,\n        uint16 _def,\n        uint16 _spd\n    ) external onlyOwner {\n        _safeMint(recipient, _id);\n        meralSupply++;\n        allMerals.push(Meral(_score, _rewards, _atk, _def, _spd));\n        emit Mint(_id, _rewards, _atk, _def, _spd);\n    }\n\n    /**\n     * @dev Mints an Ethemeral\n     * sets score and startingELF\n     * sets random [atk, def, spd]\n     */\n    function _mintMerals(uint256 amountMerals, address recipient) internal {\n        for (uint256 i = 0; i < amountMerals; i++) {\n            _safeMint(recipient, meralSupply);\n\n            uint16 atk = uint16(_random(610, nonce + 19) + 100); // max 500\n            nonce++;\n            uint16 def = uint16(_random(800 - atk, nonce + 24) + 100); // max 451\n\n            uint16 spd = 1000 - atk - def;\n\n            allMerals.push(Meral(300, startingELF, atk, def, spd));\n\n            emit Mint(meralSupply, startingELF, atk, def, spd);\n\n            meralSupply++;\n        }\n    }\n\n    /**\n     * @dev Set or unset delegates\n     */\n    function setAllowDelegates(bool allow) external {\n        allowDelegates[msg.sender] = allow;\n        emit AllowDelegatesChange(msg.sender, allow);\n    }\n\n    // GM FUNCTIONS\n\n    /**\n     * @dev Changes '_tokenId' score by 'offset' amount either 'add' or reduce.\n     * clamps score > 0 and <= 1000\n     * clamps ELF rewards amounts to something reasonable\n     * delegates only\n     */\n    function changeScore(\n        uint256 _tokenId,\n        uint16 offset,\n        bool add,\n        uint32 amount\n    ) external {\n        require(delegates[msg.sender] == true, \"delegates only\");\n        require(_exists(_tokenId), \"not exist\");\n\n        Meral storage tokenCurrent = allMerals[_tokenId];\n\n        uint16 _score = tokenCurrent.score;\n        uint16 newScore;\n\n        // safemaths\n        if (add) {\n            uint16 sum = _score + offset;\n            newScore = sum > 1000 ? 1000 : sum;\n        } else {\n            if (_score <= offset) {\n                newScore = 0;\n            } else {\n                newScore = _score - offset;\n            }\n        }\n\n        tokenCurrent.score = newScore;\n        uint32 amountClamped = amount > 10000 ? 10000 : amount; //clamp 10000 tokens\n        tokenCurrent.rewards += amountClamped;\n\n        nonce++;\n        emit ChangeScore(_tokenId, newScore, add, amountClamped);\n    }\n\n    /**\n     * @dev Changes '_tokenId' rewards by 'offset' amount either 'add' or reduce.\n     * delegates only\n     */\n    function changeRewards(\n        uint256 _tokenId,\n        uint32 offset,\n        bool add,\n        uint8 action\n    ) external {\n        require(delegates[msg.sender] == true, \"delegates only\");\n        require(_exists(_tokenId), \"not exist\");\n\n        Meral storage tokenCurrent = allMerals[_tokenId];\n\n        uint32 _rewards = tokenCurrent.rewards;\n        uint32 newRewards;\n        uint32 offsetClamped;\n\n        // safemaths\n        if (add) {\n            offsetClamped = offset > 10000 ? 10000 : offset; //clamp 10000 tokens\n            newRewards = _rewards + offsetClamped;\n        } else {\n            if (_rewards <= offset) {\n                newRewards = 0;\n            } else {\n                newRewards = _rewards - offset;\n            }\n        }\n\n        tokenCurrent.rewards = newRewards;\n\n        nonce++;\n        emit ChangeRewards(_tokenId, newRewards, add, action);\n    }\n\n    // ADMIN ONLY FUNCTIONS\n\n    // reserve 5 for founders + 5 for give aways\n    function mintReserve() external onlyOwner {\n        //admin\n        maxMeralIndex = 10;\n        _mintMerals(10, msg.sender);\n    }\n\n    /**\n     * @dev Mints Ethemerals Admin Only for giveaways\n     * Calls internal _mintMerals\n     */\n    function mintMeralsAdmin(address recipient, uint256 _amount)\n        external\n        onlyOwner\n    {\n        //admin\n        require(maxMeralIndex - _amount + 1 >= meralSupply, \"sale not active\");\n        _mintMerals(_amount, recipient);\n    }\n\n    function withdraw(address payable to) external onlyOwner {\n        //admin\n        to.transfer(address(this).balance);\n    }\n\n    function setPrice(uint256 _price) external onlyOwner {\n        //admin\n        mintPrice = _price;\n        emit PriceChange(_price);\n    }\n\n    function setMaxMeralIndex(uint256 _id) external onlyOwner {\n        //admin\n        require(_id < maxMeralSupply, \"max supply\");\n        maxMeralIndex = _id;\n    }\n\n    function addDelegate(address _delegate, bool add) external onlyOwner {\n        //admin\n        delegates[_delegate] = add;\n        emit DelegateChange(_delegate, add);\n    }\n\n    function setBaseURI(string memory newuri) external onlyOwner {\n        // ADMIN\n        _uri = newuri;\n    }\n\n    function setMeralBase(\n        uint256 _tokenId,\n        uint16 _cmId,\n        uint16 _element\n    ) external onlyOwner {\n        // ADMIN\n        allMeralBases[_tokenId] = [_cmId, _element];\n    }\n\n    // VIEW ONLY\n    function _random(uint256 max, uint256 _nonce)\n        private\n        view\n        returns (uint256)\n    {\n        return (uint256(\n            keccak256(\n                abi.encodePacked(\n                    _nonce,\n                    block.number,\n                    block.difficulty,\n                    msg.sender\n                )\n            )\n        ) % max);\n    }\n\n    function _baseURI() internal view override returns (string memory) {\n        return _uri;\n    }\n\n    function getEthemeral(uint256 _tokenId)\n        external\n        view\n        returns (Meral memory)\n    {\n        return allMerals[_tokenId];\n    }\n\n    function getMeralBase(uint256 _tokenId)\n        external\n        view\n        returns (uint16[] memory)\n    {\n        return allMeralBases[_tokenId];\n    }\n\n    function totalSupply() public view returns (uint256) {\n        return meralSupply;\n    }\n\n    /**\n     * @dev See {IERC721-isApprovedForAll}.\n     * White list for game masters and auction house\n     */\n    function isApprovedForAll(address _owner, address _operator)\n        public\n        view\n        override\n        returns (bool)\n    {\n        if (allowDelegates[_owner] && (delegates[_operator] == true)) {\n            return true;\n        }\n\n        return super.isApprovedForAll(_owner, _operator);\n    }\n}\n",
  "sourcePath": "/Users/szabolcs/Documents/Personal/Szakmai/Ethereum/ethemerals/ethemerals-contract-core/contracts/Ethemerals.sol",
  "compiler": {
    "name": "solc",
    "version": "0.8.3+commit.8d00100c.Emscripten.clang"
  },
  "schemaVersion": "3.3.4",
  "updatedAt": "2021-10-30T20:13:53.958Z",
  "networkType": "ethereum",
  "devdoc": {
    "kind": "dev",
    "methods": {
      "approve(address,uint256)": {
        "details": "See {IERC721-approve}."
      },
      "balanceOf(address)": {
        "details": "See {IERC721-balanceOf}."
      },
      "changeRewards(uint256,uint32,bool,uint8)": {
        "details": "Changes '_tokenId' rewards by 'offset' amount either 'add' or reduce. delegates only"
      },
      "changeScore(uint256,uint16,bool,uint32)": {
        "details": "Changes '_tokenId' score by 'offset' amount either 'add' or reduce. clamps score > 0 and <= 1000 clamps ELF rewards amounts to something reasonable delegates only"
      },
      "getApproved(uint256)": {
        "details": "See {IERC721-getApproved}."
      },
      "isApprovedForAll(address,address)": {
        "details": "See {IERC721-isApprovedForAll}. White list for game masters and auction house"
      },
      "migrateMeral(uint256,address,uint16,uint16,uint16,uint16,uint16)": {
        "details": "migrates (mints) an Ethemeral ment to be used during migration from L1 to L2 sets the supplied id, score, rewards,  atk, def, spd"
      },
      "mintMeral(address)": {
        "details": "Mints an Ethemeral Calls internal _mintMerals"
      },
      "mintMerals(address)": {
        "details": "Mints Ethemerals Calls internal _mintMerals"
      },
      "mintMeralsAdmin(address,uint256)": {
        "details": "Mints Ethemerals Admin Only for giveaways Calls internal _mintMerals"
      },
      "name()": {
        "details": "See {IERC721Metadata-name}."
      },
      "owner()": {
        "details": "Returns the address of the current owner."
      },
      "ownerOf(uint256)": {
        "details": "See {IERC721-ownerOf}."
      },
      "renounceOwnership()": {
        "details": "Leaves the contract without owner. It will not be possible to call `onlyOwner` functions anymore. Can only be called by the current owner. NOTE: Renouncing ownership will leave the contract without an owner, thereby removing any functionality that is only available to the owner."
      },
      "safeTransferFrom(address,address,uint256)": {
        "details": "See {IERC721-safeTransferFrom}."
      },
      "safeTransferFrom(address,address,uint256,bytes)": {
        "details": "See {IERC721-safeTransferFrom}."
      },
      "setAllowDelegates(bool)": {
        "details": "Set or unset delegates"
      },
      "setApprovalForAll(address,bool)": {
        "details": "See {IERC721-setApprovalForAll}."
      },
      "supportsInterface(bytes4)": {
        "details": "See {IERC165-supportsInterface}."
      },
      "symbol()": {
        "details": "See {IERC721Metadata-symbol}."
      },
      "tokenURI(uint256)": {
        "details": "See {IERC721Metadata-tokenURI}."
      },
      "transferFrom(address,address,uint256)": {
        "details": "See {IERC721-transferFrom}."
      },
      "transferOwnership(address)": {
        "details": "Transfers ownership of the contract to a new account (`newOwner`). Can only be called by the current owner."
      }
    },
    "version": 1
  },
  "userdoc": {
    "kind": "user",
    "methods": {},
    "version": 1
  }
}